:100C9200C10006210000000000001027414443204B
:100CA2006368616E6E656C2D30303A000437206DDA
:020CB2005600EA
:100C1200E4F5A0C282C280C2817F38FE120D0712A3
:100C22000C6E7F067E00120D07120C6E7F0C7E008A
:100C3200120D07120C6E7F017E00120D07120C6E50
:070C42007F807E00020D0718
:040C6E007F047E0081
:100C7200E4FDFCC3ED9FEC9E5015E4FBFA0BBB00B8
:0F0C8200010ABA01F8BB7EF50DBD00010C80E43C
:010C91002240
:100A75008E0E8F0F8B108A1189127C277D10120A1A
:100A850012EF24301209DEAE0EAF0F7C277D101257
:100A95000A127E037FE8CFCDCFCECCCE120A12EF5D
:100AA5002430AB10AA11A9129000011209F0AE0E64
:100AB500AF0F7C037DE8120A127E007F64CFCDCF95
:100AC500CECCCE120A12EF2430AB10AA11A9129087
:100AD50000021209F0AE0EAF0F7C007D64120A12FF
:100AE5007E007F0ACFCDCFCECCCE120A12EF2430B6
:100AF500AB10AA11A9129000031209F0AE0EAF0FA8
:100B05007C007D0A120A12ED2430AB10AA11A9123D
:060B15009000040209F04B
:100D0700C280C281D2828FA07F0A7E00120C72C27B
:020D1700822236
:100D1900D280C281D2828FA07F0A7E00120C72C259
:020D2900822224
:100C49008B0E8A0F8910AB0EAA0FA9101209C56065
:100C5900130510E5107002050F14F91209C5FF12EA
:050C69000D1980E222DC
:0A0D2B0075A89075B10475C373221A
:040CB500AD07AC06D5
:100CB900C2008CC53000FDAF3BC2008DC53000FDC0
:0B0CC900EFFE7C00E4253BFFEC3EFE4C
:010CD40022FD
:03004B00020CD5CF
:100CD500C0E0C0D075D000C007AFC4EF2480700558
:0C0CE50085C53BD200D007D0D0D0E03253
:030D3500D2942233
:100CF100C294E4FFFE120CB5D294EF7806CEC31372
:050D0100CE13D8F9FF3C
:010D060022CA
:100BA700E4F508F509F50AF50BF50CF50D120D2B13
:100BB700120D35120C127F807E00120D077B007A12
:100BC700007927120C49120CF18E0A8F0BAC0AAD73
:100BD7000BE412090B7B9D7A73794E78401208005B
:100BE7001209448E0A8F0B7B007A007921120A754D
:100BF7007FC07E00120D077B007A007921120C4915
:0B0C07007B007A007937120C4980BB9B
:10080000EC4D6011E8497017ED33EC3304600DE4F2
:10081000FCFFFEFD22E933E8330470F80209B01250
:10082000097B58046009E4CC248150062850090251
:1008300009BA2840030209B7C0E0EB4A7044B98006
:1008400006D0E0FB0209A6EF4E701CBD8008EBFF4E
:10085000EAFEE9FD80EBE98DF0A4FEE5F00208E98F
:10086000E9CDF9EAFEEBFFEF89F0A4FCE5F0CE89D3
:10087000F0A42EFFE435F0CD89F0A42DFEE435F090
:100880008067EF4E7005BD80D780C3EF8BF0A4ACBE
:10089000F0EE8BF0A42CFCE435F0F8EF8AF0A42CF9
:1008A000E5F038FCE433CB8DF0A42CFCE5F03BF80C
:1008B000EE8AF0A42CFCE5F038F8E433CF89F0A4FC
:1008C0002CFCE5F038CF3400CE89F0A42FFFE5F002
:1008D0003EFEE433C98DF0A42EFEE5F039CD8AF05A
:1008E000A42FFFE5F03EFEE43DFD33D0E0FB5007D2
:1008F0000BBB000F0209BAEC2CFCEF33FFEE33FE0A
:06090000ED33FD02099237
:1009060075F020800E75F010800575F0087D007E6C
:10091600007F003392D530D503120A67EC334010BE
:10092600EF33FFEE33FEED33FDEC33FCD5F0ED2275
:0E093600E5F0247EA2D513CC92E7CDCEFF22B1
:10094400EDD2E7CD33EC3392D524814006E4FFFEAB
:10095400FDFC22FCE4CFCECDCC24E0501174FF800A
:10096400EDC3CC13CCCD13CDCE13CECF13CF0470A7
:07097400F030D5DE020A6736
:10097B00E9D2E7C933E833F892D5EDD2E7CD33ECC2
:07098B0033FC5002B2D5223B
:10099200EC30E7100FBF000C0EBE00080DBD0004C6
:1009A2000BEB6014A2D5EB13FCED92E7FD2274FF72
:1009B200FCFDFEFF22E480F8A2D574FF13FC7D80CB
:0309C200E480EFDF
:03000000020B1BD5
:0C0B1B00787FE4F6D8FD75813B020B6288
:1009C500BB010689828A83E0225002E722BBFE0230
:0909D500E32289828A83E4932263
:1009DE00BB010689828A83F0225002F722BBFE01F8
:0209EE00F322F2
:1009F000F8BB010DE58229F582E5833AF583E8F03D
:100A0000225006E92582C8F622BBFE05E92582C8E8
:020A1000F222D0
:100A1200BC000BBE0029EF8DF084FFADF022E4CCC8
:100A2200F875F008EF2FFFEE33FEEC33FCEE9DEC91
:100A3200984005FCEE9DFE0FD5F0E9E4CEFD22EDD7
:100A4200F8F5F0EE8420D21CFEADF075F008EF2F21
:100A5200FFED33FD4007985006D5F0F222C398FD12
:050A62000FD5F0EA22AF
:0E0A6700C3E49FFFE49EFEE49DFDE49CFC22A0
:100B2700020BA7E493A3F8E493A34003F68001F232
:100B370008DFF48029E493A3F85407240CC8C333CF
:100B4700C4540F4420C8834004F456800146F6DF9E
:100B5700E4800B0102040810204080900C92E47E90
:100B6700019360BCA3FF543F30E509541FFEE49393
:100B7700A360010ECF54C025E060A840B8E493A35A
:100B8700FAE493A3F8E493A3C8C582C8CAC583CA85
:100B9700F0A3C8C582C8CAC583CADFE9DEE780BE3D
:010CB400003F
:00000001FF
