:03000000020BE808
:0C0BE800787FE4F6D8FD758139020C2FEF
:100CE300C100062100000000000009274368616E6F
:100CF3006E656C2D000530206D563A0002360000FB
:040D030002380000B2
:060C7400120DA6120DB0E6
:100C7A00E4F5A0C282C280C2817F38FE120D8212C0
:100C8A000D087F067E00120D82120D087F0C7E0071
:100C9A00120D82120D087F017E00120D82120D08BC
:070CAA007F807E00020D8235
:040D08007F047E00E6
:100D0C00E4FDFCC3ED9FEC9E5015E4FBFA0BBB001D
:0F0D1C00010ABA01F8BB7EF50DBD00010C80E4A1
:010D2B0022A5
:100A7500120D688E0A8F0BAC0AAD0BE412090B7BC5
:100A85009D7A73794E78401208001209448E0A8FB8
:070A95000B7B007A007921C0
:100A9C008E0E8F0F8B108A1189127C277D10120AF3
:100AAC0012EF24301209DEAE0EAF0F7C277D101230
:100ABC000A127E037FE8CFCDCFCECCCE120A12EF36
:100ACC002430AB10AA11A9129000011209F0AE0E3D
:100ADC00AF0F7C037DE8120A127E007F64CFCDCF6E
:100AEC00CECCCE120A12EF2430AB10AA11A9129060
:100AFC0000021209F0AE0EAF0F7C007D64120A12D8
:100B0C007E007F0ACFCDCFCECCCE120A12EF24308E
:100B1C00AB10AA11A9129000031209F0AE0EAF0F80
:100B2C007C007D0A120A12ED2430AB10AA11A91216
:060B3C009000040209F024
:100D8200C280C281D2828FA07F0A7E00120D0CC265
:020D92008222BB
:100D9400D280C281D2828FA07F0A7E00120D0CC243
:020DA4008222A9
:0D0CB1007F807E00120D827B007A00792783
:100CBE008B0E8A0F8910AB0EAA0FA9101209C560F0
:100CCE00130510E5107002050F14F91209C5FF1275
:050CDE000D9480E222EC
:0A0DA60075A89075B10475C373229F
:040D2C00AD07AC065D
:100D3000C2008CC53000FDAF35C2008DC53000FD4E
:0B0D4000EFFE7C00E42535FFEC3EFEDA
:010D4B002285
:03004B00020D4C57
:100D4C00C0E0C0D075D000C007AFC4EF24807005E0
:0C0D5C0085C535D200D007D0D0D0E032E1
:030DB000D29422B8
:100D6800EF7F00C454F0FEC294120D2CD294EF7899
:090D780006CEC313CE13D8F9FF17
:010D8100224F
:100B4200E4F508F509F50AF50BF50CF50D120C7430
:100B5200E4F536F537C3E5379464E5369400503949
:100B62000537E53770020536120CB17F43120D943A
:100B72007F0C7E00120A757FC07E00120D827B0000
:100B82007A007921120CBE7B007A007930120CBEF9
:100B92007F287E00120D0C80BC120C74E4F508F55F
:100BA20009C3E5099464E5086480948050A20509AC
:100BB200E50970020508120CB17F30120D94E4FFB2
:100BC200FE120A757FC07E00120D827B007A0079C8
:100BD20021120CBE7B007A007930120CBE7F287E77
:060BE20000120D0C80BBA7
:10080000EC4D6011E8497017ED33EC3304600DE4F2
:10081000FCFFFEFD22E933E8330470F80209B01250
:10082000097B58046009E4CC248150062850090251
:1008300009BA2840030209B7C0E0EB4A7044B98006
:1008400006D0E0FB0209A6EF4E701CBD8008EBFF4E
:10085000EAFEE9FD80EBE98DF0A4FEE5F00208E98F
:10086000E9CDF9EAFEEBFFEF89F0A4FCE5F0CE89D3
:10087000F0A42EFFE435F0CD89F0A42DFEE435F090
:100880008067EF4E7005BD80D780C3EF8BF0A4ACBE
:10089000F0EE8BF0A42CFCE435F0F8EF8AF0A42CF9
:1008A000E5F038FCE433CB8DF0A42CFCE5F03BF80C
:1008B000EE8AF0A42CFCE5F038F8E433CF89F0A4FC
:1008C0002CFCE5F038CF3400CE89F0A42FFFE5F002
:1008D0003EFEE433C98DF0A42EFEE5F039CD8AF05A
:1008E000A42FFFE5F03EFEE43DFD33D0E0FB5007D2
:1008F0000BBB000F0209BAEC2CFCEF33FFEE33FE0A
:06090000ED33FD02099237
:1009060075F020800E75F010800575F0087D007E6C
:10091600007F003392D530D503120A67EC334010BE
:10092600EF33FFEE33FEED33FDEC33FCD5F0ED2275
:0E093600E5F0247EA2D513CC92E7CDCEFF22B1
:10094400EDD2E7CD33EC3392D524814006E4FFFEAB
:10095400FDFC22FCE4CFCECDCC24E0501174FF800A
:10096400EDC3CC13CCCD13CDCE13CECF13CF0470A7
:07097400F030D5DE020A6736
:10097B00E9D2E7C933E833F892D5EDD2E7CD33ECC2
:07098B0033FC5002B2D5223B
:10099200EC30E7100FBF000C0EBE00080DBD0004C6
:1009A2000BEB6014A2D5EB13FCED92E7FD2274FF72
:1009B200FCFDFEFF22E480F8A2D574FF13FC7D80CB
:0309C200E480EFDF
:100BF400020B42E493A3F8E493A34003F68001F2CA
:100C040008DFF48029E493A3F85407240CC8C33301
:100C1400C4540F4420C8834004F456800146F6DFD0
:100C2400E4800B0102040810204080900CE3E47E71
:100C3400019360BCA3FF543F30E509541FFEE493C5
:100C4400A360010ECF54C025E060A840B8E493A38C
:100C5400FAE493A3F8E493A3C8C582C8CAC583CAB7
:100C6400F0A3C8C582C8CAC583CADFE9DEE780BE6F
:010D070000EB
:1009C500BB010689828A83E0225002E722BBFE0230
:0909D500E32289828A83E4932263
:1009DE00BB010689828A83F0225002F722BBFE01F8
:0209EE00F322F2
:1009F000F8BB010DE58229F582E5833AF583E8F03D
:100A0000225006E92582C8F622BBFE05E92582C8E8
:020A1000F222D0
:100A1200BC000BBE0029EF8DF084FFADF022E4CCC8
:100A2200F875F008EF2FFFEE33FEEC33FCEE9DEC91
:100A3200984005FCEE9DFE0FD5F0E9E4CEFD22EDD7
:100A4200F8F5F0EE8420D21CFEADF075F008EF2F21
:100A5200FFED33FD4007985006D5F0F222C398FD12
:050A62000FD5F0EA22AF
:0E0A6700C3E49FFFE49EFEE49DFDE49CFC22A0
:00000001FF
