:03000000020200F9
:1002000075A00075900051DB51DB515951DB51DB7A
:1002100051DB7480519651DB90080051BE51DB7563
:1002200090FFD294C295C296C2977F00C2B220902E
:10023000070202EC785F80F4C294EFF550711371FD
:100240004574C3519651DB90080F51BE51DB51DB11
:10025000716B716B515902020075A038C280C28166
:10026000D28251DBC28251DB75A00CC280C281D226
:100270008251DBC28251DB75A001C280C281D28271
:1002800051DBC28251DB75A006C280C281D282518D
:10029000DBC28251DB22F5A0C280C281D28251DB57
:1002A000C28251DB22F5A0D280C281D28251DBC250
:1002B0008251DB51DB22EEF9E751A50202D5C0E005
:1002C000E493FEC2D7945160EDEEC2D7945260E63B
:1002D000EE600551A5A380E8D0E022C000C00178FF
:1002E0000179FFD9FED8FAD001D000220202F8B27B
:1002F000B20F02022C0202F8C000785F758A007506
:100300008A00758901D28C208D00D8F00202EFD0CE
:100310000080FEE550FE54F003030303FF740A75EA
:0A032000D0009F74003400B4000206
:10032A00600DEE54F0030303032437F551800BEEFE
:10033A0054F0030303032430F55122E550FC540F13
:10034A00FD740975D0009D74003400B40002600980
:10035A00EC540F2437F5528007EC540F2430F55231
:10036A0022C001C002C003C004C005C0067B057AD2
:10037A00C479FFD9FEDAFA7C0C7EC47DFFDDFEDE8D
:10038A00FADCF6DBEAD006D005D004D003D002D0DE
:02039A0001223E
:10080000205245414354494F4E2054494D450043E1
:0B0810004F554E542049532051520018
:00000001FF
