:030000000209F6FC
:0C09F600787FE4F6D8FD758133020A3DDD
:100ABC00706D00616D006872006D6F6E007475650D
:100ACC000077656400746872006672690073617403
:100ADC000073756E0054696D652000446174652067
:010AEC000009
:100B6900081720425106130118100215D0D1011F90
:100B79000001080002120000021000000225000016
:0E0C6E00D2C1D2C05393C54393014393402299
:03004300020800B0
:10080000C0E0C0D075D000C000C007AF94EF24F0A6
:10081000603724F8604724F0604824E8606B24F8CF
:10082000606C24F8606A24F8606424506003020855
:10083000C40511E51170020510142415F8E6F595AC
:100840005393C7751F000208CA0511E51170020510
:1008500010142415F8E6F595751F00802575950090
:100860008020E50F7021C3E5139408E5126480949D
:100870008050460513E51370020512142417F8E69C
:10088000F5955393C7804380305393C780208034BD
:10089000C3E5269407E5256480948050165393C7DA
:1008A0000526E52670020525142427F8A69543930E
:1008B0000480177525007526005393C74393107560
:1008C0000C0180065393C7439310D007D000D0D0BB
:0308D000D0E03243
:100C400043B00F43A88443B80443B70443B102E45C
:090C5000F5B275B30243880422D9
:03001300020C7C60
:070C7C007508015388F732EF
:040C8900439320224F
:100B45007F38120BE7120C237F0E120BE7120C23D2
:100B55007F01120BE7120C237F80120BE77F647E67
:040B650000020C2757
:100BC90075A0FFC280D281C2827F057E00120C27E8
:0E0BD900D28230A706C282D28280F7C2822268
:100BE7008F2E120BC9852EA0C280C281D2827F01AF
:0E0BF7007E00120C27C2827F017E00020C27B6
:100C05008F33120BC98533A0D280C281D2827F0176
:0E0C15007E00120C27C2827F017E00020C2797
:060B1A008B2E8A2F8930AA
:100B2000E4F531F532AB2EAA2FA93085328285311A
:100B300083120AEDFF600D120C050532E53270E5F7
:040B4000053180E11A
:010B4400228E
:040C23007F647E006C
:100C2700D3EF9400EE64809480400DE4FD0DBD0584
:080C3700FCEF1F70EB1E80E8CA
:010C3F002292
:070BAA0074272521F8E6FF86
:100BB100EF54F0F524EF540FF514431430E524C439
:080BC100540FF52443243022F7
:1008D3007F85120BE7752000752102120BAAE52113
:1008E300640245207034E5245406F50924FC6011A4
:1008F30024FE701E750D00750E01E4F50AF50B80DC
:100903000B750A00750B01E4F50DF50EE524540192
:100913008004E52454034430F524AF24120C05AFBE
:1009230014120C057F20120C05E521152170021508
:1009330020C3E5206480948050A1E50E6401450D39
:1009430070087BFF7A0A79BC8014E50B6401450AC1
:100953007BFF70067A0A79BF80047A0A79C2120B88
:020963001A2256
:100965007FC5120BE7752000752103120BAAE5213F
:10097500640345207055E514540FF50924FE6018ED
:1009850014601D14602214602714602C2405703037
:100995007BFF7A0A79C5802E7BFF7A0A79C9802682
:1009A5007BFF7A0A79CD801E7BFF7A0A79D1801682
:1009B5007BFF7A0A79D5800E7BFF7A0A79D9800682
:1009C5007BFF7A0A79DD120B1A800FAF24120C0512
:1009D500AF14120C057F2F120C050521E5217002BD
:1009E5000520C39407E520648094805003020970B4
:0109F50022DF
:060C83001208D30209650E
:100C5900E4F50CF510F511F512F513F50F120C89E1
:050C6900E50C60FC2217
:100B8A00E4F50CF510F511F525F526750F01120C93
:100B9A0089E50C60FCE4F50C120C89E50C60FC227A
:100A8200E4F5A0120B45120C40120C6E120C597FA9
:100A920080120BE77BFF7A0A79E1120B1A7FC012F0
:100AA2000BE77BFF7A0A79E7120B1AE50860FCE490
:0A0AB200F508120B8A120C8380F184
:100A0200020A82E493A3F8E493A34003F68001F27E
:100A120008DFF48029E493A3F85407240CC8C333F5
:100A2200C4540F4420C8834004F456800146F6DFC4
:100A3200E4800B0102040810204080900B69E47EE0
:100A4200019360BCA3FF543F30E509541FFEE493B9
:100A5200A360010ECF54C025E060A840B8E493A380
:100A6200FAE493A3F8E493A3C8C582C8CAC583CAAB
:100A7200F0A3C8C582C8CAC583CADFE9DEE780BE63
:010B8900006B
:100AED00BB010CE58229F582E5833AF583E02250BE
:100AFD0006E92582F8E622BBFE06E92582F8E22208
:0D0B0D00E58229F582E5833AF583E4932221
:00000001FF
