:03000000020800F3
:0C080000787FE4F6D8FD758120020847DF
:04094600C101C1002A
:1008D700E4FDFCC3ED9FEC9E5015E4FBFA0BBB0057
:0F08E700010ABA01F8BB7EF50DBD00010C80E4DB
:0108F60022DF
:10092400758920758DCC759850D28ED2ACD2AF22F9
:08093E008F993001FDC2012276
:10088C008B088A09890AAB08AA09A90A1208F76019
:10089C0016050AE50A7002050914F91208F7FF1289
:0808AC00093E3099E180FB22B6
:09093400E4FF3000FDC200AF99A0
:01093D002297
:030023000208B41C
:1008B400C0E0C0D0309910C299D201E58064072409
:1008C400FF9202B2028007309804C298D200D0D0BE
:0308D400D0E0323F
:1009100012092475800F7F4112093E7F647E001208
:0409200008D780F282
:10080C00020910E493A3F8E493A34003F68001F2E9
:10081C0008DFF48029E493A3F85407240CC8C333ED
:10082C00C4540F4420C8834004F456800146F6DFBC
:10083C00E4800B0102040810204080900946E47EFD
:10084C00019360BCA3FF543F30E509541FFEE493B1
:10085C00A360010ECF54C025E060A840B8E493A378
:10086C00FAE493A3F8E493A3C8C582C8CAC583CAA3
:10087C00F0A3C8C582C8CAC583CADFE9DEE780BE5B
:01094A0000AC
:1008F700BB010689828A83E0225002E722BBFE02FF
:09090700E32289828A83E4932231
:00000001FF
