:03000000020A2EC3
:0C0A2E00787FE4F6D8FD758120020A757F
:100800004C434420495320544553544544002A2A1C
:100810002A2A2A2A2A2A2A2A2A2A2A2A2A2A2A2A38
:100820002A2A2A2A2A2A0D0A002A2A2A2A2A2A3881
:100830003035312054657374732A2A2A2A2A2A2AC9
:100840002A0D0A005072657373203120666F722082
:100850004750494F20746573740D0A0050726573D8
:1008600073203220666F72204C4544207465737487
:100870000D0A005072657373203320666F72204C2E
:10088000434420746573740D0A004750494F207427
:1008900065737465640D0A004C4544207465737477
:1008A00065640D0A004C4344207465737465640DDF
:1008B0000A0054696D6572207465737465640D0A6D
:1008C00000496E636F727265637420746573742E71
:1008D0005061737320636F7272656374206E756DFF
:0608E0006265720D0A00C2
:0A0CC100C105C104010E00010D0081
:100B4100E4F5A0C282C280C2817F38FE120C8212FB
:100B51000BCB7F067E00120C82120BCB7F0C7E002A
:100B6100120C82120BCB7F017E00120C82120BCB76
:070B71007F807E00020C8270
:040BCB007F047E0025
:100BCF00E4FDFCC3ED9FEC9E5015E4FBFA0BBB005C
:0F0BDF00010ABA01F8BB7EF50DBD00010C80E4E0
:010BEE0022E4
:1008E6008E088F098B0A8A0B890C7C277D101209CA
:1008F600D9EF24301209A5AE08AF097C277D101266
:1009060009D97E037FE8CFCDCFCECCCE1209D9EF61
:100916002430AB0AAA0BA90C9000011209B7AE0845
:10092600AF097C037DE81209D97E007F64CFCDCF65
:10093600CECCCE1209D9EF2430AB0AAA0BA90C9063
:1009460000021209B7AE08AF097C007D641209D90E
:100956007E007F0ACFCDCFCECCCE1209D9EF243080
:10096600AB0AAA0BA90C9000031209B7AE08AF098F
:100976007C007D0A1209D9ED2430AB0AAA0BA90C1A
:060986009000040209B715
:100C8200C280C281D2828FA07F0A7E00120BCFC2A5
:020C92008222BC
:100C9400D280C281D2828FA07F0A7E00120BCFC283
:020CA4008222AA
:100BA6008B138A148915AB13AA14A91512098C6024
:100BB600130515E5157002051414F912098CFF12B8
:050BC6000C9480E22206
:100C1200E4FDFCC3ED9FEC9E5015E4FBFA0BBB0018
:0F0C2200010ABA01F8BB7EF50DBD00010C80E49C
:010C310022A0
:100CA600758920758DCC759850D28ED2ACD2AF2274
:080CD6008F993005FDC20522D3
:060B78007BFF7A08790EF4
:100B7E008B138A148915AB13AA14A91512098C604C
:100B8E00160515E5157002051414F912098CFF12DD
:080B9E000CD63099E180FB2226
:090CCC00E4FF3004FDC204AF99FD
:010CD50022FC
:03002300020BEFDE
:100BEF00C0E0C0D0309910C299D205E580640724C7
:100BFF00FF9206B2068007309804C298D204D0D074
:030C0F00D0E03200
:03000B00020C6B79
:100C6B00C0E0050EC28DE50E641E7008B297050F2D
:070C7B00F50E80F2D0E0321B
:100C500075900FC28C75900F7F887E13120C12E571
:0B0C600090540FF510C454F0F59022E2
:060CDE00C28C7590FF229C
:0B0CB600C28C7BFF7A087900020BA6BD
:100C3200E4F59075900F758921F58C758A01D28C37
:0E0C4200D2A9C3E50F940A7480948040F52275
:100ABA00E4F51275900F120B41120CA6120B787BFB
:100ACA00FF7A087929120B7E120B787BFF7A087954
:100ADA0044120B7E7BFF7A08795C120B7E7BFF7ACD
:100AEA000879738042120CCC8F12E51224CE60155D
:100AFA0014601D14602824037032120C507BFF7A94
:100B0A0008798A8022120CDE7BFF7A08799880178E
:100B1A00120B41120CB67BFF7A0879A58009120CD8
:100B2A00327BFF7A0879B2120B7E80B97BFF7A0892
:070B3A0079C1120B7E80AEB1
:100A3A00020ABAE493A3F8E493A34003F68001F20E
:100A4A0008DFF48029E493A3F85407240CC8C333BD
:100A5A00C4540F4420C8834004F456800146F6DF8C
:100A6A00E4800B0102040810204080900CC1E47E4F
:100A7A00019360BCA3FF543F30E509541FFEE49381
:100A8A00A360010ECF54C025E060A840B8E493A348
:100A9A00FAE493A3F8E493A3C8C582C8CAC583CA73
:100AAA00F0A3C8C582C8CAC583CADFE9DEE780BE2B
:010CCB000028
:10098C00BB010689828A83E0225002E722BBFE0269
:09099C00E32289828A83E493229C
:1009A500BB010689828A83F0225002F722BBFE0131
:0209B500F3222B
:1009B700F8BB010DE58229F582E5833AF583E8F076
:1009C700225006E92582C8F622BBFE05E92582C822
:0209D700F2220A
:1009D900BC000BBE0029EF8DF084FFADF022E4CC02
:1009E900F875F008EF2FFFEE33FEEC33FCEE9DECCB
:1009F900984005FCEE9DFE0FD5F0E9E4CEFD22ED11
:100A0900F8F5F0EE8420D21CFEADF075F008EF2F5A
:100A1900FFED33FD4007985006D5F0F222C398FD4B
:050A29000FD5F0EA22E8
:00000001FF
