:0300000002097E74
:0C097E00787FE4F6D8FD7581390209C5C8
:0E0BAC00C100022100090235000002370000DE
:100A9800E4F5A0C282C280C2817F38FE120B8812A0
:100AA8000AF47F067E00120B88120AF47F0C7E007F
:100AB800120B88120AF47F017E00120B88120AF4C6
:070AC8007F807E00020B8815
:040AF4007F047E00FD
:100AF800E4FDFCC3ED9FEC9E5015E4FBFA0BBB0034
:0F0B0800010ABA01F8BBF4F50DBD00010C80E441
:010B170022BB
:1008D8008E088F098B0A8A0B890C7C277D101208D9
:1008E8004DEF2430120819AE08AF097C277D10128D
:1008F800084D7E037FE8CFCDCFCECCCE12084DEF8A
:100908002430AB0AAA0BA90C90000112082BAE08E0
:10091800AF097C037DE812084D7E007F64CFCDCF00
:10092800CECCCE12084DEF2430AB0AAA0BA90C90FE
:10093800000212082BAE08AF097C007D6412084D36
:100948007E007F0ACFCDCFCECCCE12084DEF24301B
:10095800AB0AAA0BA90C90000312082BAE08AF092A
:100968007C007D0A12084DED2430AB0AAA0BA90CB5
:0609780090000402082BB0
:100B8800C280C281D2828FA07F0A7E00120AF8C278
:020B98008222B7
:100B9A00D280C281D2828FA07F0A7E00120AF8C256
:020BAA008222A5
:100ACF008B118A128913AB11AA12A9131208006095
:100ADF00130513E5137002051214F9120800FF1223
:050AEF000B9A80E222D9
:0A0BBB0075A89075B10475C3772288
:040B1800AD07AC0673
:100B1C00C2008CC53000FDAF39C2008DC53000FD60
:0B0B2C00EFFE7C00E42539FFEC3EFEEC
:010B3700229B
:03004B00020B5550
:100B5500C0E0C0D075D000C007AFC4EF24807005D9
:0C0B650085C539D200D007D0D0D0E032D6
:030BCA00D29422A0
:100B380075C373EF7F00C454F0FEC294120B18D231
:0C0B480094EF7806CEC313CE13D8F9FF4B
:010B5400227E
:050BC500D292D2932240
:100B7100AB07AA0675C377C292C293AF03AE021246
:070B81000B18D293D292225F
:040A0A00AB07AA0686
:100A0E000536E536700205351425E02423F8A602D6
:100A1E0008A603AE35AF36AC21AD221208A28C3536
:100A2E008D36E53625E02423F8E6FE08E6FFC3EB17
:100A3E009FFFEA9EFEEF2538F538EE3537F537FE87
:0D0A4E00AF387C007D081208A2EE540FFEA8
:010A5B002278
:100A5C00E4F50DF50EF582F583F50FF510120BBBD1
:100A6C00120BCA120BC5E4FFFE120B388E0D8F0E43
:100A7C00E50E7802C333CE33CED8F9F5828E83FFE0
:0C0A8C00120A0A8E838F82120B7180DA2E
:10098A00020A5CE493A3F8E493A34003F68001F21D
:10099A0008DFF48029E493A3F85407240CC8C3336E
:1009AA00C4540F4420C8834004F456800146F6DF3D
:1009BA00E4800B0102040810204080900BACE47E16
:1009CA00019360BCA3FF543F30E509541FFEE49332
:1009DA00A360010ECF54C025E060A840B8E493A3F9
:1009EA00FAE493A3F8E493A3C8C582C8CAC583CA24
:1009FA00F0A3C8C582C8CAC583CADFE9DEE780BEDC
:010BBA00003A
:10080000BB010689828A83E0225002E722BBFE02F6
:09081000E32289828A83E4932229
:10081900BB010689828A83F0225002F722BBFE01BE
:02082900F322B8
:10082B00F8BB010DE58229F582E5833AF583E8F003
:10083B00225006E92582C8F622BBFE05E92582C8AF
:02084B00F22297
:10084D00BC000BBE0029EF8DF084FFADF022E4CC8F
:10085D00F875F008EF2FFFEE33FEEC33FCEE9DEC58
:10086D00984005FCEE9DFE0FD5F0E9E4CEFD22ED9E
:10087D00F8F5F0EE8420D21CFEADF075F008EF2FE8
:10088D00FFED33FD4007985006D5F0F222C398FDD9
:05089D000FD5F0EA2276
:1008A200C2D5EC30E709B2D5E4C39DFDE49CFCEE71
:1008B20030E715B2D5E4C39FFFE49EFE12084DC394
:1008C200E49DFDE49CFC800312084D30D507C3E48F
:0608D2009FFFE49EFE22E0
:00000001FF
