:030000000208E50E
:0C08E500787FE4F6D8FD75813302092C01
:100BB50020504D0020414D0054696D652000446171
:040BC5007465200033
:100AD900081700156303051119100215D0D1011F5C
:100AE90000010800021200000210000002250000A7
:100BC900D2C1D2C07593004393814393405393C7D5
:010BD90022F9
:03004300020800B0
:10080000C0E0C083C082C0D075D000C000C007AFB8
:1008100094EF12099E0837080841100856180882FC
:1008200020085B28088230088440088248088B50E2
:1008300008BE58000008D80511E511700C0510809D
:10084000080511E51170020510142415F8E6F59558
:100850005393E70208D87595008020E50F7021C3F7
:10086000E5139408E5126480948050660513E5133F
:1008700070020512142417F8E6F5955393C78058B3
:100880008050800280207593D1804DC3E526940569
:10089000E5256480948050130526E5267002052521
:1008A000142427F8A6957593C5802D0526E5267096
:1008B000020525142427F8A6955393C3801A05260C
:1008C000E52670020525142427F8A69575250075E0
:1008D00026007593D1750C01D007D000D0D0D082FE
:0508E000D083D0E032DE
:100B8B0043A88443B80443B70443B102E4F5B275F8
:050B9B00B302D28A2222
:03001300020BEAF3
:070BEA007508015388F73282
:040BF10043932022E8
:100A92007F38120B38120A3A7F0E120B38120A3ABA
:100AA2007F01120B38120A3A7F80120B387F647E64
:040AB20000020A3EF6
:100B1A0075A0FFC280D281C2827F057E00120A3E82
:0E0B2A00D28230A706C282D28280F7C2822217
:100B38008F2E120B1A852EA0C280C281D2827F010D
:0E0B48007E00120A3EC2827F017E00020A3E3B
:100B56008F33120B1A8533A0D280C281D2827F01D5
:0E0B66007E00120A3EC2827F017E00020A3E1D
:060A67008B2E8A2F89305E
:100A6D00E4F531F532AB2EAA2FA9308532828531CE
:100A7D0083120971FF600D120B560532E53270E5D8
:040A8D00053180E1CE
:010A91002242
:040A3A007F647E0057
:100A3E00D3EF9400EE64809480401DE4FDEDFB3313
:100A4E0095E0FAC3EB9405EA6480948050030D8020
:080A5E00ECEF1F70DB1E80D8D5
:010A6600226D
:100B74008F2EE52EC4540F2430FF120B56E52E544D
:070B84000F2430FF020B56A5
:100A0600E529541FFF120B747F3A120B56AF2812BA
:100A16000B747F3A120B56E527547FFF120B74E5D1
:100A2600297BFF30E5067A0B79B580047A0B79B914
:040A3600120A672217
:100AB600AF2A120B747F20120B56AF2B120B747FCA
:100AC6002F120B56AF2C120B747F2F120B56AF2D15
:030AD600020B749C
:100BDA007F85120B38120A067FC5120B38020AB635
:100BA000E4F50CF510F511F512F513F50F120BF134
:050BB000E50C60FC22D1
:100AFA00E4F50CF510F511F525F526750F01120B25
:100B0A00F1E50C60FCE4F50C120BF1E50C60FC223B
:1009C400E4F5A0120A92120B8B120BC9120AFAE573
:1009D4002730E703120BA07F80120B387BFF7A0BC2
:1009E40079BD120A677FC0120B387BFF7A0B79C37B
:1009F400120A67E50860FCE4F508120AFA120BDA39
:020A040080F17F
:1008F1000209C4E493A3F8E493A34003F68001F250
:1009010008DFF48029E493A3F85407240CC8C33307
:10091100C4540F4420C8834004F456800146F6DFD6
:10092100E4800B0102040810204080900AD9E47E83
:10093100019360BCA3FF543F30E509541FFEE493CB
:10094100A360010ECF54C025E060A840B8E493A392
:10095100FAE493A3F8E493A3C8C582C8CAC583CABD
:10096100F0A3C8C582C8CAC583CADFE9DEE780BE75
:010AF90000FC
:10097100BB010CE58229F582E5833AF583E022503B
:1009810006E92582F8E622BBFE06E92582F8E22285
:0D099100E58229F582E5833AF583E493229F
:10099E00D083D082F8E4937012740193700DA3A3E8
:1009AE0093F8740193F5828883E4737402936860FC
:0609BE00EFA3A3A380DFFC
:00000001FF
