:0300000002009C5F
:100050007B057AC479FFD9FEDAFA7C0C7EC47FFF77
:10006000DFFEDEFADCF6DBEA2275900F7590FF12F8
:100070000050C297C296C295C294120050E5907586
:10008000F010A4240FAD90F590120050C297C296C4
:10009000C295C294E590B40FD0EDF6227850116964
:1000A000081169081169081169E5502551F556E5EF
:1000B000523553540F23232323F5572556F404F8C0
:1000C00054F0F590120050120050E8540F232323EF
:0500D00023F59080FE05
:00000001FF
