:03000000020B9759
:0C0B9700787FE4F6D8FD758164020BDE67
:100D1500001830465A6A757D7F7D756A5A463018C7
:100D250000E7CFB9A5958A8280828A95A5B9CFE7D4
:0E0DA700C10002480009025C0000025E00006C
:100C7500E4F5A0C282C280C2817F38FE120D8312C4
:100C85000CD17F067E00120D83120CD17F0C7E00E5
:100C9500120D83120CD17F017E00120D83120CD12F
:070CA5007F807E00020D8339
:040CD1007F047E001E
:100CD500E4FDFCC3ED9FEC9E5015E4FBFA0BBB0055
:0F0CE500010AEB64014A70F50DBD00010C80E4BB
:010CF40022DD
:100AF1008E088F098B0A8A0B890C7C277D101209BD
:100B010043EF243012090FAE08AF097C277D101284
:100B110009437E037FE8CFCDCFCECCCE120943EF80
:100B21002430AB0AAA0BA90C900001120921AE08CE
:100B3100AF097C037DE81209437E007F64CFCDCFEE
:100B4100CECCCE120943EF2430AB0AAA0BA90C90EC
:100B51000002120921AE08AF097C007D641209432D
:100B61007E007F0ACFCDCFCECCCE120943EF243009
:100B7100AB0AAA0BA90C900003120921AE08AF0918
:100B81007C007D0A120943ED2430AB0AAA0BA90CA3
:060B91009000040209219E
:100D8300C280C281D2828FA07F0A7E00120CD5C29C
:020D93008222BA
:100D9500D280C281D2828FA07F0A7E00120CD5C27A
:020DA5008222A8
:100CAC008B0D8A0E890FAB0DAA0EA90F1208F660D8
:100CBC0013050FE50F7002050E14F91208F6FF125A
:050CCC000D9580E222FD
:0A0DB60075A89075B10475C377228B
:040CF500AD07AC0695
:100CF900C2008CC53000FDAF64C2008DC53000FD57
:0B0D0900EFFE7C00E42564FFEC3EFEE2
:010D140022BC
:03004B00020D5251
:100D5200C0E0C0D075D000C007AFC4EF24807005DA
:0C0D620085C564D200D007D0D0D0E032AC
:030DCB00D294229D
:100D350075C373EF7F00C454F0FEC294120CF5D254
:0C0D450094EF7806CEC313CE13D8F9FF4C
:010D5100227F
:050DC600D292D293223D
:100D6E00AB0775C377C292C293EBFF7E00120CF5F0
:050D7E00D293D2922285
:040C2300AB07AA066B
:100C2700055DE55D7002055C1425E0244AF8A6021F
:100C370008A603AE5CAF5DAC48AD491209988C5C61
:100C47008D5DE55D25E0244AF8E6FE08E6FFC3EB87
:100C57009FFFEA9EFEEF255FF55FEE355EF55EFED0
:0D0C6700AF5F7C007D08120998EE540FFE6F
:010C7400225D
:03000B00020DC023
:060DC000C28D75630132D3
:1009CE00E4F521F522F523F524F525F52678277C87
:1009DE0000FD7BFF7A0D7915FE7F201208D07A7FFD
:1009EE00120DB6120DCB120DC6E5302AF560E538A4
:1009FE002AF561E5402AF562E4F525F526C3E526DC
:100A0E00940FE52594005064E4F5630526E5267001
:100A1E000205252427F8E62AF547AE25AF267C00E9
:100A2E007D03120943ED4C7008E5478560F0A4F58F
:100A3E0047ED64014C7008E5478561F0A4F547ED7C
:100A4E0064024C7008E5478562F0A4F547AF471283
:100A5E000D6E758921758CFF758AF0D28CD2A9C363
:100A6E00E563940174809480509380F3D3E52694CB
:100A7E0000E525940050030209F7E4F563E5261519
:100A8E00267002152574272526F8E6FFC3EA9FF582
:100A9E0047AE25AF267C007D03120943ED4C70084E
:100AAE00E5478560F0A4F547ED64014C7008E54715
:100ABE008561F0A4F547ED64024C7008E547856248
:100ACE00F0A4F547AF47120D6E758921758CFF7531
:100ADE008AF0D28CD2A9C3E56394017480948050BD
:030AEE008B80F307
:100BA3000209CEE493A3F8E493A34003F68001F291
:100BB30008DFF48029E493A3F85407240CC8C33353
:100BC300C4540F4420C8834004F456800146F6DF22
:100BD300E4800B0102040810204080900DA7E47EFE
:100BE300019360BCA3FF543F30E509541FFEE49317
:100BF300A360010ECF54C025E060A840B8E493A3DE
:100C0300FAE493A3F8E493A3C8C582C8CAC583CA08
:100C1300F0A3C8C582C8CAC583CADFE9DEE780BEC0
:010DB500003D
:10080000E709F608DFFA8046E709F208DFFA803EDA
:1008100088828C83E709F0A3DFFA8032E309F608C7
:10082000DFFA8078E309F208DFFA807088828C832F
:10083000E309F0A3DFFA806489828A83E0A3F608E3
:10084000DFFA805889828A83E0A3F208DFFA804CBD
:1008500080D280FA80C680D4806980F28033801094
:1008600080A680EA809A80A880DA80E280CA8033FD
:1008700089828A83ECFAE493A3C8C582C8CCC58375
:10088000CCF0A3C8C582C8CCC583CCDFE9DEE78045
:100890000D89828A83E493A3F608DFF9ECFAA9F0C4
:1008A000EDFB2289828A83ECFAE0A3C8C582C8CC1A
:1008B000C583CCF0A3C8C582C8CCC583CCDFEADE33
:1008C000E880DB89828A83E493A3F208DFF980CC95
:1008D00088F0EF60010E4E60C388F0ED2402B4048E
:1008E0000050B9F582EB2402B4040050AF23234535
:0608F00082239008507302
:1008F600BB010689828A83E0225002E722BBFE0200
:09090600E32289828A83E4932232
:10090F00BB010689828A83F0225002F722BBFE01C7
:02091F00F322C1
:10092100F8BB010DE58229F582E5833AF583E8F00C
:10093100225006E92582C8F622BBFE05E92582C8B8
:02094100F222A0
:10094300BC000BBE0029EF8DF084FFADF022E4CC98
:10095300F875F008EF2FFFEE33FEEC33FCEE9DEC61
:10096300984005FCEE9DFE0FD5F0E9E4CEFD22EDA7
:10097300F8F5F0EE8420D21CFEADF075F008EF2FF1
:10098300FFED33FD4007985006D5F0F222C398FDE2
:050993000FD5F0EA227F
:10099800C2D5EC30E709B2D5E4C39DFDE49CFCEE7A
:1009A80030E715B2D5E4C39FFFE49EFE120943C3A6
:1009B800E49DFDE49CFC800312094330D507C3E4A1
:0609C8009FFFE49EFE22E9
:00000001FF
